:020000040800F2
:10000000E81F002099010008532B0008D92600089A
:10001000512B0008610E0008313400080000000078
:1000200000000000000000000000000001010008C6
:10003000630E00080000000045010008152E0008AE
:10004000B3010008B3010008B3010008B3010008C0
:10005000B3010008B3010008B3010008B3010008B0
:10006000B3010008B3010008B3010008B3010008A0
:10007000B3010008B3010008B3010008B301000890
:10008000B3010008B3010008B3010008B301000880
:10009000B3010008B3010008B3010008B301000870
:1000A000B3010008B3010008B3010008B301000860
:1000B000A12E0008B3010008B3010008B301000835
:1000C000B3010008B3010008B3010008B301000840
:1000D000B3010008F5320008B3010008B3010008BD
:1000E000B3010008B3010008B3010008DFF80CD029
:1000F00000F01EFC004800470D3E0008E81F0020ED
:10010000224B19680868B0E8F00F80F30988BFF344
:100110006F8F4FF0000080F311884EF00D0E704786
:100120000000000006480068006880F3088862B696
:1001300061B6BFF34F8FBFF36F8F00DF00BF00BF0B
:1001400008ED00E0EFF30980BFF36F8F0F4B1A68E3
:1001500020E9F00F106008B54FF0500080F31188CF
:10016000BFF34F8FBFF36F8F04F0F4FF4FF0000029
:1001700080F31188BDE8084019680868B0E8F00FFE
:1001800080F30988BFF36F8F704700BF28000020FD
:10019000EFF3058070470000064880470648004797
:1001A000FEE7FEE7FEE7FEE7FEE7FEE7FEE7FEE727
:1001B000FEE7FEE79F2E0008ED000008202A04DB82
:1001C000203A21FA02F00021704721FA02F3D040D0
:1001D000C2F12002914008431946704740EA0103EA
:1001E0009B0703D009E008C9121F08C0042AFAD2ED
:1001F00003E011F8013B00F8013B521EF9D27047B1
:10020000D2B201E000F8012B491EFBD27047002258
:10021000F6E710B513460A4604461946FFF7F0FF05
:10022000204610BD10B5002200E0521C835C8C5C9F
:10023000A34201D1002BF8D1D8B2E1B2401A10BDCF
:1002400070B50F4D00B92868002412E00A4602E09C
:100250009E4203D0521C1378002BF9D1DAB222430C
:1002600005D02BB124B1002100F8011B04E00446A5
:10027000401C0678002EE9D12860204670BD0000A1
:10028000A000002070B5064603F01EF9046805467C
:100290000A220021304600F09DFA2C6070BD2DE945
:1002A000FE4F804681EA0300C00F0C46009021F00B
:1002B000004123F00045B8EB0200A94105D24046B9
:1002C000214690461C460B46024623F00040104350
:1002D00047D0270DC7F30A00C3F30A510290401A12
:1002E000019040286BDAC3F3130040F4801B0098A0
:1002F000924620B10023D2EB030A63EB0B0B01986B
:100300005946C0F14002504600F0F5F906460D4648
:1003100050465946019A00F0FDF910EB0800614182
:10032000002487EA115284EAE7731A4340D0009A06
:1003300062B3019A012A4FEA075215DC001B61EBF8
:1003400002014FF0004202EA0752CDE90042001CD0
:1003500041F5801132462B4600F083FA03B0BDE828
:10036000F08F40462146F9E7001B61EB0201001CBB
:1003700041F5801300185B412018A2F5001747EBE8
:10038000030140EAD570B6196D4111E06D084FEADE
:10039000360645EAC0754FEA0752001B61EB0201C1
:1003A000001C41F5801149084FEA30000019514105
:1003B00032462B4603B0BDE8F04F00F043BA009838
:1003C000012240000023D0EB020263EBE0730098AF
:1003D00021464FEAE074B8EB000061EB0401E9E765
:1003E00083F000435BE781F0004158E72DE9FE4FC1
:1003F00081EA030404F0004421F0004100944FF02E
:10040000000B23F0004350EA01045ED052EA0304DB
:100410005BD0C3F30A54C1F30A552C44A4F2F3345D
:100420000194A0FB0254C1F3130141F48011C3F302
:10043000130343F4801301FB024400FB034E840AC0
:10044000970A44EA815447EA8357A4FB0768029558
:100450008D0A05FB07854FEA932C04FB0C542705F6
:10046000029D4FEA065847EA1637B5EB08056EEBD2
:10047000070C870E920E47EA811742EA8312A7FB08
:100480000201B6EB0B0164EB00042B0D43EA0C33C5
:100490005E1844EB1C50DA465146E7FB0201C5F3F7
:1004A00013044FEA0B3343EA14534FEA0432019C1E
:1004B00043EA0603A4F10C040294009CCDE900B4C5
:1004C00000F0CFF903B0BDE8F08F00200146F9E756
:1004D0002DE9F04D81EA030404F0004B21F00045C2
:1004E00014464FF0000A23F0004150EA050220D0E4
:1004F00054EA01021DD0C5F30A570246C5F313039F
:10050000C1F31300C1F30A5640F4801543F480137D
:10051000A7EB0608101BD64608F2FD3873EB050062
:1005200002D308F1010801E092185B41B8F1000F15
:1005300003DA00200146BDE8F08D00204FF4801161
:10054000064684460EE0171B73EB050705D3121B06
:1005500063EB050306434CEA010C49084FEA3000FF
:1005600092185B4150EA0107EDD152EA030012D024
:1005700082EA040083EA0501084305D0101BAB4161
:1005800006D20122002306E000224FF0004302E0E1
:100590006FF0010253101AEB06004CEB085110EB00
:1005A0000A0041EB0B01BDE8F04D00F04BB90EB570
:1005B00040F2334102910021CDE900110A460B4679
:1005C00000F04FF903B000BD70B5C1F30A5201F05D
:1005D00000450024C1F3130140F2FF3341F48011C0
:1005E0009A4201DA002070BD40F233439A42A2F2EF
:1005F000334203DC5242FFF7E1FD00E090402C4320
:10060000F1D0404270BDC1F30A5210B5C1F31301DD
:1006100040F2FF3341F480119A4201DA002010BD0C
:1006200040F233439A42A2F2334203DC5242FFF7D4
:10063000C5FD10BD904010BD30B5041E71F1000421
:1006400004DB4FF00044404264EB0101141E73F1DF
:10065000000405DB1C464FF00043524263EB0403E9
:10066000994208BF904230BD30B50B46014600208C
:100670002022012409E021FA02F59D4205D303FA64
:1006800002F5491B04FA02F52844151EA2F10102E5
:10069000F1DC30BD2DE9F05F0546002092469B4617
:1006A00088460646814640241BE028464146474688
:1006B0002246FFF783FD53465A46C01A914110D394
:1006C00011461846224600F016F82D1A67EB01086D
:1006D0004F4622460120002100F00DF817EB0009DB
:1006E0004E41201EA4F10104DFDC484631462A4673
:1006F0004346BDE8F09F202A04DB203A00FA02F1CD
:10070000002070479140C2F1200320FA03F31943FF
:1007100090407047202A06DBCB17203A41FA02F0BE
:1007200043EAE07306E041FA02F3D040C2F120024E
:1007300091400843194670470FB4002300B589B0B3
:100740000CA900910B996FF00042CB601E4B0693F1
:100750001E4B07930423CDE901321D4A089202463D
:100760006B46002000F084F909B05DF814FB70B509
:1007700086B006464FF0FF300091CDE90101002020
:1007800015460C4604903246694604A8FFF7D4FF8C
:1007900002460498211825B108B1084600E0204619
:1007A0002860049800280DD0002A02DD00988842B5
:1007B00008D0081B0094CDE901043246694604A81C
:1007C000FFF7BAFF06B070BDA90C0008C70C0008FF
:1007D0005D0900082DE9F04791460F468046044622
:1007E000002614F8015B2DB100F0B4F80068405DFC
:1007F000C007F6D12B2D02D02D2D18D0641E4A46ED
:100800003946204600F070FA27B13968A14201D17B
:10081000C7F8008071054FF002040BD54042002854
:1008200003DD02F051FE0460A007BDE8F08746F446
:100830008066E4E70028F8DA02F046FE04606FF014
:100840000040F2E710B5141E73F1000408DA401CF2
:1008500041F1000192185B411A4301D120F00100DF
:1008600010BD2DE9F04D92469B4611B1B1FA81F2CF
:1008700002E0B0FA80F220329046FFF73CFF0446D7
:100880000F4640EA0A0041EA0B0153465A46084324
:1008900013D0114653EA010019D0C8F14002504666
:1008A000FFF78CFC05460E46504659464246FFF778
:1008B00022FF084305D0012004E020463946BDE868
:1008C000F08D0020054346EAE0762C4337430A9832
:1008D0006305E40AA0EB08000022FD0A44EA47543D
:1008E0000A3002D500200146E9E7010510196941E7
:1008F000DDE9084500196941BDE8F04DA2E7C1F303
:100900000A52C1F3130140F2FF3341F480119A42BD
:1009100002DA00200146704740F233439A42A2F2C5
:10092000334202DC5242FFF749BCFFF7E4BE00004D
:10093000064C074D06E0E06840F0010394E807002C
:1009400098471034AC42F6D3FFF7D4FB485D00085B
:10095000685D000800487047405C000810B5044618
:10096000FFF7F8FF0068005D00F0010010BD000017
:100970002DE9FF4F087881B09946FF2805D0491C22
:100980002D2804D00024002308E000230BE00124DC
:10099000F9E703EB830300EB4303491C0878FF28C6
:1009A000F7D104B15B4200200090147801462D2C51
:1009B00001D02B2C04D1521C2D2C12D000240094D9
:1009C00000251678FF2E0ED00A24A0FB04C801FBD8
:1009D0000481002700FB0711521C16EB0C00694133
:1009E000EFE70124EBE7994450EA01020ED000241E
:1009F000AA4D2646DFF8A88200F0D3F982468B463E
:100A0000B9F1000009DAC9F100071BE001980021E3
:100A1000C0E9001105B0BDE8F08F074612E0F80705
:100A200007D022462B4630464146FFF7DFFC0646FC
:100A3000884622462B4610461946FFF7D7FC044647
:100A40000D467F10002FEAD1B9F1000F3246434620
:100A50005046594602DAFFF73BFD01E0FFF7C6FCBE
:100A6000009A0AB181F00041019AC2E90001D1E780
:100A70002DE9FF4F1F468DB0D7E901464FF0FF38F3
:100A80002E2045464FF000090B90B9696D1C0E9859
:100A90008847396A824688470028F6D1BAF1FF3F75
:100AA0000AD024F4D064002E11DDBAF12B0F08D047
:100AB000BAF12D0F0BD102E0404611B0ABE744F480
:100AC0008064B9696D1C0E9888478246761E694617
:100AD000600501D52D2000E02B208DF8000001F1EC
:100AE000010B0DF1200809E0B9696D1C0E988847CB
:100AF00082460F9844F40074761E0560002E02DDD5
:100B0000BAF1300FF0D00B998A453ED144F0800401
:100B100006E00F99681CA9F1010944F4007408600B
:100B2000B9696D1C761E0E98884782463028F0D031
:100B30002BE00B998A4505D1200603D444F08004AC
:100B4000761E18E0504602F0A1FD08B30DF1130126
:100B5000761E44F400748B4508D2AAF130000BF8DD
:100B6000010B200607D5A9F1010003E0200602D4FD
:100B700009F101008146A00502D50F99681C0860A3
:100B8000B9696D1C0E9888478246002ED1DC53E06F
:100B9000002E51DDBAF1650F02D0BAF1450F4BD1ED
:100BA000A00549D5B9696D1C24F44074761E0E98D1
:100BB00088478246002E0CDD2B2804D0BAF12D0F79
:100BC00007D144F48074B9696D1C0E988847824639
:100BD000761EE00501D52D2100E02B2108F8011B30
:100BE000CDF82C8021E00DF12901761E44F400742B
:100BF00088450CD2AAF1300010F0FF0088F8000000
:100C000002D10B99884509D908F1010806E0E005F1
:100C100001D5244801E042F20F708146B9696D1C8C
:100C20000E98884782460F980560002E04DD5046D6
:100C300002F02CFD0028D6D1F9690E988847FF20D4
:100C40008BF8000088F800000020069007904B46C3
:100C50006A4608A906A8FFF78BFEA00502D46FF02C
:100C600001002AE714F0240F0AD0E00714D1DDE9CF
:100C700006123868031D3B600068C0E900120BE0F3
:100C8000DDE9060100F099F80146E00704D1386873
:100C9000021D3A600068016028460EE7000024400B
:100CA0000000F03FF1D8FFFF426842B1016811F83F
:100CB000013B23B1521EC0E90012184670470121C2
:100CC000C160881E704742685AB1C368016843B961
:100CD00083688B4205D0491E521CC0E900120020D7
:100CE00070474FF0FF3070472DE9F05F8246007883
:100CF000002715468B460AF10104B946302801D079
:100D00009DB113E014F8010B0127782803D058286F
:100D100001D045B10AE00DB1102D07D100271025F3
:100D200014F8010B02E0082500E00A250026B04671
:100D30000EE005FB080005FB06F1012701EB10465C
:100D40001FFA80F8B6F5803F00D3B94614F8010BBE
:100D5000294600F018F80028EBDABBF1000F05D0A7
:100D60000FB1641E00E05446CBF80040B9F1000F0B
:100D700006D002F0A9FB02210160C81EBDE8F09F69
:100D800048EA0640FAE73A2800D2303820F020023C
:100D9000412A01D3A2F13700884201D34FF0FF303E
:100DA00070470EB540F2334202920022CDE9002294
:100DB0001346FFF756FD03B000BD01F0004330B409
:100DC00021F0004150EA010206D00A0DA2F560723E
:100DD000C1F31301002A02DC30BC00207047440F2D
:100DE00044EAC104C100E01830BC00EBC250AFF3CC
:100DF00000800029A8BF7047401C490008BF20F0B0
:100E00000100704710B4B0FA80FC00FA0CF050EA10
:100E1000010404BF10BC704749B1CCF1200421FA91
:100E200004F411FA0CF118BF012121430843A3EB8C
:100E30000C01CB1D4FEA00614FEA102042BF002099
:100E400010BC704700EBC35010440029A4BF10BC75
:100E50007047401C490008BF20F0010010BC7047DB
:100E6000FEE7704710B590F821100022022905D046
:100E70000421816380F82020012010BD01680B68E7
:100E800023F00E030B6001680B6823F001030B6075
:100E900090F84030C46B012101FA03F3636080F8DD
:100EA000211080F82020104610BD000010B590F8E9
:100EB00021100024022903D00421816301243DE094
:100EC00001680A6822F00E020A6001680A6822F0CE
:100ED00001020A601A4A0168914201D1012121E010
:100EE000174A1432914201D110211BE0144A2832D2
:100EF000914201D1891515E0114A3C32914201D14C
:100F000089140FE00E4A5032914202D14FF48031E1
:100F100008E00B4A6432914202D14FF4801101E0A3
:100F20004FF08071064A083A5160012180F8211083
:100F3000002180F82010416B01B18847204610BD88
:100F40000800024070B5044600F0FEF80546601C3B
:100F500002D004480078044400F0F6F8401BA04298
:100F6000FAD370BD180000202DE9F84FDFF8B891D2
:100F7000002409F1040A0AF1040B23460F270BF1A0
:100F8000040EC9E00125A5402A40AA427DD1674E42
:100F9000D1F804C0ACEB0608B44532D014DCBCF187
:100FA000030F3AD009DCBCF1000F2AD0BCF1010FCD
:100FB0001CD0BCF1020F31D11DE0BCF1110F17D0D4
:100FC000BCF1120F2AD119E0B8F5881F19D006DC40
:100FD000B8F5803F15D0B8F5801F1FD111E0B8F5E6
:100FE000001F0ED0B8F5041F18D10AE0CB6815E039
:100FF000CB681B1D12E0CB6808330FE0CB680C33C5
:101000000CE08B682BB1012B4FF0080303D0456136
:1010100004E0042302E0056100E00023FF2A01D878
:10102000064601E000F104064FEA840501D9A5F166
:101030002005D6F8008007FA05FC28EA0C0803FA18
:1010400005F548EA0508C6F800804D68ED0062D550
:10105000374DAE6946F00106AE61AD6924F0030676
:1010600005F001050095334D06EB050CDCF8085042
:10107000A607360F07FA06F825EA0805DFF8B88054
:10108000404503D14FF0000817E044E0DFF8AC80A2
:10109000404502D14FF001080FE0DFF8A480404541
:1010A00002D14FF0020808E0DFF89880404502D1F5
:1010B0004FF0030801E04FF0040808FA06F848EA88
:1010C0000508CCF808804D68D9F80060ED034D465E
:1010D00001D5164300E096432E604D68DAF80060B3
:1010E000AD03554601D5164300E096432E604D688A
:1010F000DBF80060ED025D4601D5164300E0964343
:101100002E604D68DEF80060AD02754601D51643CD
:1011100000E096432E60641C0D682A46E5407FF48B
:1011200031AFBDE8F88F000000040140000011104D
:10113000001002400000014000080140000C014086
:101140000010014000140140014880687047000011
:101150001800002070B5040025D094F83D0000254B
:1011600020B984F83C50204600F078FA242084F816
:101170003D002068016821F00101016020680168DC
:1011800041F4004101602068016821F400410160E0
:1011900000F012FC4D4A6168914201D84C4900E0D0
:1011A0004C49884201D2012070BD4B492368B0FBF5
:1011B000F1F15E6826F03F060E435E60636893427D
:1011C00006D94FF4967359434FF47A73B1FBF3F198
:1011D0002368491C1E6A26F03F0631431962616884
:1011E000914210D84900401EB0FBF1F2521CC2F3EC
:1011F0000B02042A01D2042022E0B0FBF1F0401CD3
:10120000C0F30B001CE0A268F2B301EBC10303EBD7
:101210000116431EB3FBF6F35B1C43F480431B052E
:1012200049D092B301EBC10202EB0111401EB0FBA9
:10123000F1F0401CC0F30B0040F4804040F400404B
:101240002168CA694CF6FF739A431043C861D4E918
:10125000071001432068026822F0C00211430160B8
:10126000D4E9030101432068826848F2FF339A43BE
:1012700011438160D4E9050108432168CA6822F05E
:10128000FF021043C86001E00EE016E0206801682C
:1012900041F0010101602564202084F83D002563B0
:1012A00084F83E50002070BD01EB4106431EB3FBA5
:1012B000F6F35B1CB3E70120C2E701EB4101401EDE
:1012C000B0FBF1F0401CC0F30B00B7E7A0860100B3
:1012D00080841E0000093D0040420F002DE9FF4FB1
:1012E00083B00025DDE910799A4693460446DDF87F
:1012F00048800095FFF728FF064694F83D00202817
:101300007CD11923012285492046009601F0F4FA88
:101310000028F5D194F83C0001286FD0012084F812
:101320003C0020680168C90703D1016841F0010150
:1013300001602068016821F400610160222084F8C6
:101340003D00402084F83E0025646762A4F82A909E
:10135000608D20857248E062CDE9008653465A468A
:101360002046049901F0D0F900287DD1208DDFF8C6
:10137000B491202768B1012814D0022820680168A0
:101380001ED041F48061016020684169806900904D
:10139000B6E02068416981690091016841F40071FB
:1013A0000160ADE02068016821F48061016072B6DF
:1013B0002068416981690091016841F400710AE087
:1013C00041F40061016072B6206841698169009151
:1013D000016821F48061016062B691E0032868D859
:1013E00001280CD0022843464FF00002494620460F
:1013F00000960FD001F080FAB0BB10E08BE03246CF
:101400004146204601F0F7FA70BB20680069616A26
:1014100008706CE001F070FA30BB72B634E02068FE
:10142000016821F48061016072B620680069616A18
:101430000870606A401C6062208D401E2085608DAF
:10144000401E6085384846F2A8110068B0FBF1F0F4
:10145000C0EBC00000EB80000090401E009008D060
:1014600020684069C04300E029E040070CD500989F
:10147000F3E744F8305F6773A573206940F02000FC
:10148000206162B625731AE02068016841F400719A
:10149000016020680069616A0870606A401C6062CF
:1014A000218D491E2185618D491E618562B62168A5
:1014B0001BE032464146204601F09DFA18B101205A
:1014C00007B0BDE8F08F20680069616A0870606A43
:1014D000401C6062218D491E2185618D491E6185F8
:1014E00021684A69D24352070AD409690170606AC7
:1014F000401C6062208D401E2085608D401E6085EE
:10150000208D00287FF46AAF84F83D7084F83E5047
:1015100084F83C50D4E70220D2E70000020010001B
:101520000000FFFF04000100240000202DE9FF4F10
:1015300083B09A46DDE9119793460446DDF8408072
:10154000FFF702FE054694F83D0020287FD11923BD
:10155000012240492046009501F0CEF9002876D1BD
:1015600094F83C00012872D0012084F83C002068E7
:101570000168C90703D1016841F0010101602068D9
:10158000016821F400610160212084F83D004020C1
:1015900084F83E0000262664C4F82480A4F82A902B
:1015A000608D20852C48E062CDE9007553465A468F
:1015B0002046049901F026F970B930E02A463946F0
:1015C000204601F04BFA58B1206C042804D1206861
:1015D000016841F400710160012007B0BDE8F08F9F
:1015E000606A216800780861606A401C6062218D31
:1015F000491E89B22185628D521E62852268536917
:10160000DB435B070BD469B100781061606A401C52
:101610006062208D401E2085608D401E6085208D7B
:101620000028CBD12A463946204601F03FF9002850
:10163000CAD154F83D0B016841F4007101602020CB
:1016400004F81E09E67766770020C6E7FFE7022068
:10165000C3E70000020010000000FFFF10B586B0D5
:101660000021009101910291039100680F49884285
:101670001AD10F4CA06940F00800A061A06969462A
:1016800000F008000490C020009012200190032078
:1016900003900848FFF768FCE06940F40010E0613F
:1016A000E06900F40010049006B010BD0054004042
:1016B00000100240000C0140024881680278114489
:1016C0008160704718000020074810B5016841F09C
:1016D00010010160032000F095F80F2000F006F8DB
:1016E00000F03EF8002010BD0020024000B5014689
:1016F00087B000221C2000F065F81C2000F054F890
:101700001448C16941F00101C161C06905A900F037
:1017100001000690684600F02FF900F04DF90E49DF
:101720004000B0FBF1F10D484FF08042491E0260CD
:10173000416040F2E7320021C0E90321816000F0FE
:1017400057FB10B1012007B000BD044800F092FB28
:10175000F9E700000010024040420F00C8020020DC
:101760000F4808B5816941F001018161816901F08B
:1017700001010091C16941F08051C161C06900223D
:1017800000F0805000900F21901E00F01BF80548DB
:10179000416821F0E06141F00071416008BD000046
:1017A0000010024000000140002809DB00F01F0289
:1017B000012191404009800000F1E020C0F80011B3
:1017C00070470000F0B40E4B1B680C46C3F30223B5
:1017D000C3F10705042D00D90425191D072901D2DD
:1017E000002300E0DB1E012606FA05F1491E214018
:1017F00099409E40761E16403143F0BC01F054BE25
:101800000CED00E0064900F0070208684FF6FF0300
:10181000184040EA0220034A104308607047000065
:101820000CED00E00000FA05BFF34F8F054801689A
:10183000054A01F4E06111430160BFF34F8F00BF1F
:10184000FDE700000CED00E00400FA052DE9F0478B
:101850000F46050061D0434E306800F00700B842E3
:1018600009D2306820F0070038433060306800F05B
:101870000700B84251D128683B4C810712D5400778
:1018800003D5606840F4E06060602878000703D505
:10189000606840F4605060606068A96820F0F00003
:1018A000084360602878C00728D06868012810D0F5
:1018B0002168022810D0890700292EDA616821F0FA
:1018C000030101436160FFF73FFC804641F2883924
:1018D0000DE021688903EFE78901EDE7FFF734FCAC
:1018E000A0EB0801494502D90320BDE8F0876068F4
:1018F000696800F00C00B0EB810FEFD1306800F0A8
:101900000700B8420BD9306820F007003843306038
:10191000306800F00700B84201D00120E5E72878E0
:10192000400705D56068E96820F4E060084360601E
:101930002878000706D56068296920F4605040EADD
:10194000C100606000F058F86168084AC1F30311F3
:10195000515CC8400649086006480068FFF7C6FEAB
:101960000020C2E70020024000100240A45B0008F3
:10197000240000201C0000200F2202600C4A536843
:1019800003F003034360536803F0F003836053687C
:1019900003F4E063C36052684FF4E06303EAD202E9
:1019A00002610448006800F007000860704700000A
:1019B00000100240002002400448054900684968C0
:1019C000044AC1F30221515CC84070472400002042
:1019D00000100240B45B00080448054900684968EB
:1019E000044AC1F3C221515CC84070472400002062
:1019F00000100240B45B000812A185B00FC98DE849
:101A00000F0014A0144A006804905168134801F0B4
:101A10000C03042B10D0082B0ED1C1F38343C90350
:101A20001DF803000AD5516804AAC1F34041515C76
:101A30000A4A5043B0FBF1F005B0704708494843EB
:101A4000FAE7000002030405060708090A0B0C0D5B
:101A50000E0F1010010200000010024000127A0068
:101A600000093D002DE9F84F040070D02078C04DEA
:101A7000C00749D06868C0F38100012807D06868B2
:101A8000C0F38100022809D16868C00306D5286820
:101A9000800339D560680028E7D035E06068B0F58C
:101AA000803F0BD010B1B0F5A02F11D0286820F4E2
:101AB00080302860286820F4802002E0286840F404
:101AC00080302860606890B1FFF73EFB06460AE070
:101AD000286840F480202860F0E700BFFFF734FB5F
:101AE000801B642873D828688003F7D50CE0FFF7C3
:101AF0002BFB064605E000BFFFF726FB801B642892
:101B0000F0D828688003F7D420789A4E80074FF0E9
:101B100001094FF0000839D5686810F00C0F07D0A4
:101B20006868C0F38100022809D16868C00306D440
:101B30002868800714D52069012808D110E02069A1
:101B4000B0B1C6F80090FFF7FFFA074605E00AE1DA
:101B5000FFF7FAFAC01B0228C4D828688007F7D517
:101B60002868616920F0F80040EAC10028600DE0B3
:101B7000C6F80080FFF7E8FA074604E0FFF7E4FA4A
:101B8000C01B022823D828688007F7D420780007D4
:101B90002CD57948A169D9B1C0F80090FFF7D4FAE3
:101BA000074604E0FFF7D0FAC01B02280FD8686A86
:101BB0008007F7D571484FF4FA510068B0FBF1F097
:101BC000009000BF0098411E0091FAD20EE080E024
:101BD000C0F80080FFF7B8FA074604E0FFF7B4FA50
:101BE000C01B022875D8686A8007F7D420784007A0
:101BF00060D5E8690027C00008D4E86940F080504B
:101C0000E861E869012700F0805000905C480168B5
:101C1000C90513D40168834641F480710160FFF760
:101C200093FA824606E000BFFFF78EFAA0EB0A00A7
:101C300064284ED8DBF80000C005F5D5E06801281F
:101C40000AD008B1052813D0286A20F001002862C4
:101C5000286A20F0040002E0286A40F001002862AF
:101C6000E06841F2883B98B1FFF76EFA82460BE0DC
:101C7000286A40F004002862EEE700BFFFF764FA2C
:101C8000A0EB0A0159455AD8286A8007F6D50CE01E
:101C9000FFF75AFA824605E0FFF756FAA0EB0A0171
:101CA00059454CD8286A8007F6D41FB1E86920F05E
:101CB0008050E861E06988B36968C1F38101022955
:101CC00044D00228C6F8608004D0FFF73DFA0446ED
:101CD00038E034E0FFF738FA074604E0FFF734FA5B
:101CE000C01B02282BD828688001F7D4206AB0F5E1
:101CF000803F05D16868A16820F40030084368601F
:101D0000D4E908010843696821F474110843686044
:101D1000C6F86090FFF718FA044606E025E000BF19
:101D2000FFF712FA001B022809D828688001F7D5AE
:101D30001BE000BFFFF708FA001B022802D90320AE
:101D4000BDE8F88F28688001F4D40EE00128F7D0B0
:101D50006868226A00F48031914204D1616A00F41B
:101D60007010884201D00120EAE70020E8E7000077
:101D70000010024000004242800442422400002041
:101D8000007000407047704770B590F83C20012A01
:101D900026D0012480F83C40022280F83D200368D0
:101DA0005A689D6822F070060A6832435A600D4BEB
:101DB00002689A4208D0B2F1804F05D00A4B9A428D
:101DC00002D00A4B9A4204D1496825F08003194396
:101DD000916080F83D40002180F83C10084670BDBD
:101DE000022070BD002C01400004004000080040AB
:101DF00010B5040003D094F83D0010B107E00120B5
:101E000010BD002084F83C00204600F01FF802209E
:101E100084F83D00211D206801F048F8012084F875
:101E2000460084F83E0084F83F0084F8400084F8BF
:101E3000410084F8420084F8430084F8440084F8A8
:101E4000450084F83D00002010BD000008B5006882
:101E50000649884208D10648C16941F00201C161C2
:101E6000C06900F00200009008BD000000040040BE
:101E70000010024090F83D10012901D00120704768
:101E8000022180F83D100168CA6842F00102CA6070
:101E900000680B49884208D0B0F1804F05D009494D
:101EA000884202D00849884204D1816801F00701C4
:101EB000062903D0016841F001010160002070474C
:101EC000002C0140000400400008004070B50446AA
:101ED00090F83C00012817D0012584F83C500220DE
:101EE00084F83D002068826822F0770222F47F4265
:101EF00082600868502830D00DDC20284DD005DCE9
:101F000098B310283BD148E0022070BD302844D05F
:101F1000402834D139E0602828D0702806D0B0F5A8
:101F2000805F2CD0B0F5005F29D10AE0CB68D1E901
:101F30000121206800F0FDFF2068816841F07701F1
:101F400009E0CB68D1E90121206800F0F2FF2068A8
:101F5000816841F48041816011E0CA684968206865
:101F600001F09CF85021206807E016E0CA68496833
:101F7000206801F0A4F86021206800F0E4FF84F8F4
:101F80003D50002084F83C0070BDCA684968206854
:101F900001F084F840212068EFE7226801461046EE
:101FA000EBE7704770B50446006801694FF0000523
:101FB000C943890715D4C168C943890711D4E91EEB
:101FC000016101202077206880698007204602D0C7
:101FD000FFF7E7FF04E000F0BFF8204600F04EF9FD
:101FE000257720680169C943490717D4C168C943E7
:101FF000490713D46FF004010161022020772068A3
:10200000806910F4407F204602D0FFF7CAFF04E049
:1020100000F0A2F8204600F031F925772068016928
:10202000C943090716D4C168C943090712D46FF020
:1020300008010161042020772068C06980072046DC
:1020400002D0FFF7AEFF04E000F086F8204600F073
:1020500015F9257720680169C943C90617D4C168F5
:10206000C943C90613D46FF010010161082020771D
:102070002068C06910F4407F204602D0FFF791FF2E
:1020800004E000F069F8204600F0F8F825772068B1
:102090000169C943C90708D1C168C943C90704D147
:1020A000891E0161204600F039F920680169C943A1
:1020B000090609D4C168C943090605D46FF0800137
:1020C00001612046FFF75EFE20680169C9434906A9
:1020D00009D4C168C943490605D46FF040010161C4
:1020E000204600F022F920680169C94389060BD413
:1020F000C168C943890607D46FF0200101612046F9
:10210000BDE87040FFF73FBE70BD000000B585B070
:102110000021009101910291039100680B498842CE
:1021200011D10B48816941F00401816180696946E0
:1021300000F004000490C020009002200190039061
:102140000448FEF711FF05B000BD00000004004088
:102150000010024000080140704770B5044690F836
:102160003C000D4601280AD0012084F83C0042B111
:10217000042A18D0082A2AD00C2A4DD139E002208E
:1021800070BD206800F0E8FE2068816941F0080118
:1021900081612068816921F0040181612068816981
:1021A0002A69114311E0206800F0FEFE2068816971
:1021B00041F4006181612068816921F4806181615D
:1021C000206881692A6941EA0221816124E020684E
:1021D00000F016FF2068C16941F00801C161206864
:1021E000C16921F00401C1612068C1692A691143F4
:1021F00011E0206800F030FF2068C16941F40061FF
:10220000C1612068C16921F48061C1612068C16930
:102210002A6941EA0221C161002084F83C0070BDB6
:1022200010B5040003D094F83D0010B107E0012080
:1022300010BD002084F83C00204600F01EF802206B
:1022400084F83D00211D206800F030FE012084F854
:10225000460084F83E0084F83F0084F8400084F88B
:10226000410084F8420084F8430084F8440084F874
:10227000450084F83D00002010BD70477047000005
:1022800010B50446022249B104290ED0082913D002
:1022900094F84100012816D0012010BD94F83E00AA
:1022A0000128F9D184F83E200FE094F83F0001287E
:1022B000F2D184F83F2008E094F840000128EBD1E7
:1022C00084F8402001E084F841200122206800F0D9
:1022D00023FE0F492068884203D1426C42F4004239
:1022E00042642068884208D0B0F1804F05D0094987
:1022F000884202D00849884204D1816801F0070170
:10230000062903D0016841F001010160002010BDE1
:10231000002C014000040040000800400068B0F1BB
:10232000804F01D1FFF7C8B97047704770477047B9
:10233000F8B5026804461068D168536910F00F0FB1
:102340004FF0000553D003F0010601F490773743B6
:102350005FD0C20705D0CA0503D5226C42F0010246
:102360002264420705D5DA0703D0226C42F002024C
:102370002264820705D5DA0703D0226C42F00402FA
:102380002264020707D501F02002324303D0226CF9
:1023900042F008022264226C002A34D0800604D560
:1023A000880602D5204600F0BCFE20684069216CFA
:1023B000C0F38010090700D430B3204600F099FE26
:1023C0002068416949061BD5416921F040014161FE
:1023D000A06BA8B158494163A06BFEF767FD0028C8
:1023E00011D0A06B416B01B0BDE8F04008478306F7
:1023F0000FD58B060DD52046BDE8F84000F091BE04
:102400002046FFF794FFF8BD2046FFF790FF2564B4
:10241000F8BD266B2023012E52D1C60650D5CE061C
:102420004ED5106850680090506940062AD5A16BBF
:10243000086840680004000CEAD0A68D8642E7D9FF
:10244000E0858869202818D0D06820F48070D0609A
:102450002068416921F0010141612068416921F052
:102460004001416184F83E3025632068C16821F055
:102470001001C160A06BFEF7F5FCA08DE18D401A44
:1024800081B219E0A08DE18D401A81B2E08D002863
:10249000BED00029BCD0D06820F49070D0602068F5
:1024A000426922F00102426184F83E3025632068CF
:1024B000C26822F01002C2602046FFF737FFF8BD65
:1024C00005062BD50D0629D594F83D002128F6D117
:1024D000A068B0F5805F01D12069B0B1206A411CCD
:1024E0002162216800784860E08C401E0004000CE6
:1024F000E084E4D12068C16821F08001C1602068D7
:10250000C16841F04001C160F8BD206A0088C0F395
:1025100008005060206A801C2062E5E74006F3D581
:102520004806F1D5D168204621F04001D16084F8F9
:102530003D3000F0D0F8F8BDE330000870B504007D
:1025400004D094F83D00002510B106E0012070BDD4
:1025500084F83C50204600F023F8242084F83D0005
:102560002068C16821F40051C160204600F034FEAB
:102570002068016921F4904101612068416921F0DE
:102580002A0141612068C16841F40051C16025649D
:10259000202084F83D0084F83E00002070BD00003B
:1025A00030B585B00024009401940294039400682F
:1025B000184988422CD11848816941F480418161D1
:1025C000816901F480410491816941F004018161D4
:1025D0008069124D00F0040004904FF400700090E8
:1025E000022001900320039069462846FEF7BCFCB8
:1025F0002815CDE90004694628460294FEF7B4FC8C
:1026000000220F212520FFF7DDF82520FFF7CCF869
:1026100005B030BD00380140001002400008014004
:10262000704700002DE9F843044690F83D001F462E
:1026300016460D4620284CD1C5B1BEB194F83C00D9
:10264000012846D0012084F83C004FF00008C4F86F
:102650004080212084F83D00FEF776FDA684814667
:10266000E684A068B0F5805F03D004E00120BDE8F7
:10267000F883206928B12E465FF0000584F83C807D
:102680000EE00026FAE78021204600F001FEA0B906
:10269000AEB116F8010B21684860E08C401EE08462
:1026A000E08C4B464FF0000200970028EBD14FF032
:1026B0004001204600F0ECFD30B10320D7E735F8AB
:1026C000020BC0F30800E6E7202084F83D0000205C
:1026D000CDE70220CBE77047FEE701684A69D243A5
:1026E00052050FD46FF480624A61002140F8301F18
:1026F000202242738173026942F004020261017375
:1027000001207047002070472DE9F84F044600680B
:1027100089460B9D01689846174641F48061016027
:102720002068016841F48071016000954FF0011B41
:102730000022594620460A9B00F0DEF84FF4007A4A
:1027400040B120680068C00501D5C4F840A003204E
:10275000BDE8F88F216809F0FE0008612B46284982
:1027600020460A9A00F0FCF8F0BB206841698069B5
:1027700000902A4620460A9900F070F940B1206C7A
:1027800004283AD12068016841F40071016034E006
:10279000FEB2B8F1010F09D02168380A08612A4653
:1027A00020460A9900F05AF90028E8D1206806610D
:1027B0002A4620460A9900F051F90028DFD1206806
:1027C000016841F48071016000950022594620465D
:1027D0000A9B00F091F80028B3D1216809F0FF00AE
:1027E00040F00100086100E007E02B460449204664
:1027F0000A9A00F0B5F80028AAD00120A8E7000046
:10280000020001002DE9F843044600680D46DDE9A9
:10281000089701689846164641F4807101604B465E
:1028200000224FF001112046009700F065F848B1F2
:1028300020680068C00502D54FF4007020640320B2
:10284000BDE8F883216805F0FE0008613B464A4672
:102850001549204600F084F888B9206841698069EC
:1028600000903A464946204600F0F8F848B1206CFE
:10287000042804D12068016841F40071016001203E
:10288000DEE7F5B2B8F1010F09D02168300A08611E
:102890003A464946204600F0E1F80028E7D1206892
:1028A00005610020CCE700000200010070B516466B
:1028B0000D4604460DE02046FFF70FFF08B101204A
:1028C00070BD681C05D0FEF73FFC801BA84207D8EE
:1028D00035B120684069C0434007ECD4002070BD8A
:1028E000002044F8300F20216173A073216941F06A
:1028F000200121612073E2E72DE9F0471E46904652
:102900000D460446C1F30747DDF8209008E0701C2F
:1029100006D0FEF719FCA0EB0900B0420FD876B143
:102920002068012F18D0806925EA00000004000CFF
:1029300014D000214145EAD00020BDE8F0870020F6
:1029400044F8300F20216173A073216941F0200108
:10295000216120730120F0E74069E5E70121E9E703
:102960002DE9F0479A4691460E46044600254FF061
:102970002008C1F3074725E020684069C0434005AF
:1029800014D42068016841F40071016021686FF47B
:1029900080604861256384F83D8084F83E50206C57
:1029A00040F00400206484F83C501FE0B9F1FF3F80
:1029B00008D0FEF7C9FBA0EB0A0149450CD8B9F1D4
:1029C000000F09D02068012F13D0806926EA00008B
:1029D0000004000C0BD0CFE744F8305F84F80D8082
:1029E000A573206940F02000206125730120BDE817
:1029F000F0874069EAE72DE9F041002590460E4650
:102A00000446202717E04069C043C0060CD454F8A0
:102A1000301B6FF01000486144F810596777A577B4
:102A2000206A2062257717E0FEF78EFBA0EB0800F6
:102A3000B04208D83EB120684169C9434906E2D492
:102A40000020BDE8F08144F8305F6773A57320690A
:102A500040F02000206125730120F2E770B5164692
:102A60000D4604460DE02046FFF737FE08B1012071
:102A700070BD681C05D0FEF767FB801BA84207D815
:102A800035B120684069C0430006ECD4002070BD19
:102A9000002044F8300F20216173A073216941F0B8
:102AA000200121612073E2E710B58EB00024079465
:102AB000089409940A940B941C2168460C94FDF721
:102AC000A6FB2248204901604821C0E901144FF4C7
:102AD000FA71C0E903148461FFF78AF908B172B68C
:102AE000FEE74FF48050079007A91848FFF7EEF96A
:102AF00008B172B6FEE71548FFF792FB08B172B64F
:102B0000FEE70B940BA911480C94FFF73DF908B1AF
:102B100072B6FEE76020CDE9000402940022694607
:102B20000A480494FFF719FB08B172B6FEE70422C5
:102B300069460648FFF711FB08B172B6FEE7034885
:102B4000FFF7E4FA0EB010BD0004004018020020A8
:102B5000FEE7FEE7DFF8F080DFF8F0B0464698F8D1
:102B60000A0000F07F00FDF722FD0022384BFDF740
:102B7000AFFC04460D463089FDF719FD894607462E
:102B800022462B46FDF732FC04460D4638464946A0
:102B900022462B46FDF724FC81468A46F07A4FF404
:102BA0007A71377B484301F029FC002648E000BFDA
:102BB00098F80A0000061CD4D8E90023012000F090
:102BC000CDF800225B4648465146FDF70FFC002237
:102BD000204BFDF70BFCFDF716FD01F00FFC00226A
:102BE0001346012000F0BAF800225B462046294631
:102BF0001BE000221346012000F0B0F800225B46E3
:102C000020462946FDF7F2FB0022124BFDF7EEFBB2
:102C1000FDF7F9FC01F0F2FBD8E90023012000F0F8
:102C20009DF800225B4648465146FDF7DFFB002237
:102C3000084BFDF7DBFBFDF7E6FC01F0DFFB761C44
:102C4000BE428BDAB4E70000A802002000408F40AB
:102C50000000594000004E40DFF8F080DFF8F0B08F
:102C6000464698F80A0000F07F00FDF7A0FC00221D
:102C7000384BFDF72DFC04460D463089FDF797FCD7
:102C80008946074622462B46FDF7B0FB04460D4613
:102C90003846494622462B46FDF7A2FB81468A4626
:102CA000F07A4FF47A71377B484301F0A7FB002696
:102CB00048E000BF98F80A0000061CD4D8E90023B9
:102CC000022000F04BF800225B4648465146FDF7D3
:102CD0008DFB0022204BFDF789FBFDF794FC01F0F2
:102CE0008DFB00221346022000F038F800225B46DC
:102CF000204629461BE000221346022000F02EF851
:102D000000225B4620462946FDF770FB0022124B4D
:102D1000FDF76CFBFDF777FC01F070FBD8E90023B1
:102D2000022000F01BF800225B4648465146FDF7A2
:102D30005DFB0022084BFDF759FBFDF764FC01F039
:102D40005DFB761CBE428BDAB4E70000B8020020BF
:102D500000408F400000594000004E4010B511491E
:102D6000114C085C50B104280FD0082810461946B1
:102D700012D000F05FFB2168086410BD10461946B0
:102D800000F058FB2168486310BD1046194600F05A
:102D900051FB2168886310BD00F04CFB2168C863BB
:102DA00010BD00000400002018020020154F164D31
:102DB00007F1B00800264FF4807968880004FCD53C
:102DC00012491348FDF73CFA2C4608E0207847F8F2
:102DD0002010401C20700D490020FDF731FA606181
:102DE0000100F3D12670074801F0A6F8D8F80000DA
:102DF0000168C9434906FBD449460548FDF707FA6F
:102E00006680DAE7B001002000000020345B000893
:102E1000B000002010B5502080F31188BFF34F8F11
:102E2000BFF36F8F02F0E4FC18B104494FF08050FB
:102E30000860002080F3118810BD000004ED00E060
:102E400030B58FB028216846FDF7E1F914210AA8B2
:102E5000FDF7DDF901210804CDE9001000240294FA
:102E600002250491CDE907504FF4E010099068461F
:102E7000FEF7F8FD08B172B6FEE70F20CDE90A05AE
:102E80004FF48060CDE90C4002210AA80E94FEF7B1
:102E9000DDFC002801D072B6FEE70FB030BD7047F0
:102EA0000148FFF77FB80000C8020020F0B50268B3
:102EB000164B174C174D4FF08047984205D0B8423B
:102EC00003D0A04201D0A84203D122F070064A6884
:102ED0003243984205D0B84203D0A04201D0A84264
:102EE00003D122F44074CA6822434C6922F0800264
:102EF000224302608A68C2620A688262984201D1F3
:102F00000969016301214161F0BD0000002C01400D
:102F1000000400400008004010B501F01F0301212B
:102F2000046A99408C430462016A9A401143016229
:102F300010BD10B5846842EA032224F47F440A439A
:102F40002243826010BD826822F070020A4342F080
:102F5000070181607047000030B5026A22F001026B
:102F60000262026A4368846924F073050C682C438A
:102F700022F002058A682A430A4DA8420BD122F0AA
:102F80000805CA6823F440732A434D6922F00402FD
:102F90001D438B692B43436084614968416302622E
:102FA00030BD0000002C014030B5026A22F0100252
:102FB0000262026A436884690D6824F4E64444EAC4
:102FC00005248D6822F0200242EA05120B4DA8422A
:102FD0000ED1CD6822F0800242EA05124D6923F439
:102FE000406343EA85038D6922F0400243EA85038A
:102FF0004360846149688163026230BD002C0140F6
:1030000030B5026A22F480720262036A4268C469BF
:1030100023F4007324F073050C682C438D6843EA95
:1030200005230C4DA8420ED1CD6823F4006343EA7A
:1030300005234D6922F4405242EA05128D6923F4BA
:10304000806342EA05124260C4614968C163036259
:1030500030BD0000002C014030B5026A22F48052DD
:103060000262046A4268C3690D6823F4E64343EAD6
:1030700005238D6824F4005444EA0534064DA84223
:1030800004D14D6922F4804242EA85124260C36154
:1030900049680164046230BD002C014010B5036A28
:1030A000046A24F001040462846924F0F00444EA10
:1030B000021423F00A020A438461026210BD10B5B3
:1030C000036A23F0100303628369046A23F47043E4
:1030D00043EA023224F0A00343EA01118261016253
:1030E00010BD10B5406A0021C185C184FFF71FF9EA
:1030F00010BD0168CA6822F49072CA6001684A690A
:1031000022F001024A61016B012904D10168CA68F9
:1031100022F01002CA60202180F83E1000210163D5
:10312000704708B590F83E10222901D0022008BD52
:1031300082684FF480539A4201D1016921B1816ABA
:103140009A421BD04AB10AE00268816A5268C2F30F
:1031500008020A80816A891C08E0026972B102686B
:10316000526802F07F020A70816A491C8162C18D37
:10317000491E0904090CC18503D019E00268526890
:10318000F1E70168CA6822F02002CA600168CA68D3
:1031900022F48072CA6001684A6922F001024A6121
:1031A000202180F83E10016B012903D0FFF738FA87
:1031B000002008BD002101630168CA6822F01002E6
:1031C000CA6001680A68D20602D50A684968009197
:1031D000818DFFF7ABF8EBE770B504460068016935
:1031E000E26821F44051114301612169A06808435C
:1031F000616908432168CA6841F20C639A4302433B
:10320000CA6020684169A26921F44071114341619B
:103210001E492068884202D1FEF7DEFB01E0FEF77E
:10322000CBFB00EBC00101EB001260686421800061
:10323000B2FBF0F3B3FBF1F36FF018067343B2FB8C
:10324000F0F5B2FBF0F605EB8305322303EB051531
:10325000B5FBF1F5B6FBF1F605F0F00505EB06154B
:10326000B2FBF0F6B2FBF0F0B0FBF1F06FF0180239
:10327000504306EB800003EB0010B0FBF1F0216837
:1032800000F00F002844886070BD00000038014045
:103290002DE9F041984617460E460446069D1DE06E
:1032A000681C1BD02DB1FDF74FFFA0EB0800A84212
:1032B00014D92068C16821F4D071C16020684169C7
:1032C00021F001014161202084F83D0084F83E0096
:1032D000002084F83C000320BDE8F08120680068ED
:1032E00036EA000004D00020B842D9D00020F3E72D
:1032F0000120F9E710B500F007F8BDE810400148DB
:10330000FFF716B860020020154830B40068006866
:10331000C04380061BD413480068C2B212484188DB
:103320000B0414D44C044FF0000304D50A2A0DD129
:1033300041F4004111E00D2A0DD0C1F30D040B4DF5
:10334000491C89B22A554180FF2900D9438030BCED
:103350000348FEF7EDBF41F480414180F7E70000EC
:10336000600200200438014000000020B00000206E
:10337000F0B585B0082503AEFF240096CDE90154D1
:1033800001232A46A1212848FDF7A8FF9DF80C003B
:10339000FDF70DF9254F00223B46FDF799F8224B2A
:1033A000E433C3E900019DF80E209DF80DC002EB47
:1033B0000C221A819DF80F209A729DF81020DA7263
:1033C0009DF811201A7302460B460120FFF7C6FC38
:1033D0000096CDE9015401231022A1211248FDF7E6
:1033E0007DFF9DF80C00FDF7E2F800223B46FDF75B
:1033F0006FF80D4CF434C4E900019DF80E209DF8DF
:103400000D3002EB032222819DF80F20A2729DF85D
:103410001020E2729DF81120227302460B46022012
:10342000FFF79CFC05B0F0BDC40100200000244063
:10343000FEE7000070B5124E04460D4600223346EA
:10344000FDF7FAF801D20024354600223346204623
:103450002946FDF73DF80B4E00223346FCF7C6FF28
:1034600004460D4600223346FDF7E6F801D200245B
:10347000354620462946BDE87040FDF7A5B8000056
:103480000000144000407F400FB4054B10B503A965
:10349000044A029800F002F910BC5DF814FB000029
:1034A000F53D0008A40000200907090E002804DBF0
:1034B00000F1E02080F80014704700F00F0000F1E8
:1034C000E02080F8141D704700487047A8000020D5
:1034D0000148006870470000A800002002E008C80A
:1034E000121F08C1002AFAD170477047002001E07E
:1034F00001C1121F002AFBD170470000014908607A
:1035000070470000A80000202DE9FF5F82B0002175
:10351000DDE90430020DDDF840B0034318D044F675
:103520001050A2F2FF3242431514119801281FD007
:10353000A5EB0B00401C5FEA000A4FF000064E4F5F
:10354000DFF83891B046504615D5CAF1000413E0B3
:10355000119801244AA3012801D16FEA0B010298B6
:10356000119AC0E90031C0E9024206B0BDE8F09FFF
:10357000CBF10000DFE704460021404A491842EB46
:103580000450CDE9001012E0E00707D032463B4678
:1035900040464946FCF72AFF8046894632463B466C
:1035A00010461946FCF722FF06460F466410002C11
:1035B000EAD1DDE90401DDE90023BAF1000F06DA02
:1035C000FCF714FF42464B46FCF710FF05E0FCF702
:1035D0007FFF42464B46FCF77BFF04460E46002227
:1035E000284BFDF729F803D84FF0FF30014607E0DC
:1035F0000022254B20463146FCF751FEFDF77FF9AE
:10360000102409E0002C0ADB0A220023FDF742F80F
:10361000039B30321A55641E50EA0102F2D1641C39
:10362000039AC4F111031444119A012A03D0012210
:1036300008430DD10AE0084304D000204FF0110BDD
:10364000119072E7A3EB0B056D1E0DE05B4504DDE9
:103650004FF0000205F1010504E003DA4FF000022B
:10366000A5F10105002AECD002981199C0E90231B8
:10367000C0E9004579E70000000014400000F03F79
:10368000300000000000F0430000E03F30380A281E
:1036900001D2012070470020704700002DE9FF4F44
:1036A00095B09B468946064600250FE2252877D12E
:1036B00000242746F84A0121059400E0044316F847
:1036C000013F203B01FA03F01042F7D130782A285D
:1036D00011D06FF02F033078A0F13002092A16D8EC
:1036E000059A44F0020402EB820203EB420210440A
:1036F000761C0590EFE759F8042B0592002A03DAAF
:10370000504244F40054059044F00204761C307892
:103710002E2816D116F8010F44F004042A280DD0E3
:103720006FF02F023078A0F13003092B09D807EB96
:10373000870302EB4303C718761CF3E759F8047BB1
:10374000761C30786C280FD006DC4C2817D06828FF
:103750000DD06A2814D104E0742810D07A280FD133
:103760000DE044F400140AE044F4801401E044F451
:1037700040147278824202D104F58014761C761CC3
:10378000307866280BD013DC582877D009DC002865
:1037900075D04528F6D04628F4D047281AD19DE1A7
:1037A00018E0632835D0642879D0652812D195E1D6
:1037B000702873D008DC6728F1D069286FD06E2894
:1037C0000DD06F2806D1B5E073282CD0752875D0A0
:1037D000782874D05A46179990476D1C75E1C4F348
:1037E0000250022809D003280DD0D9F8001004286F
:1037F0000DD00D6009F1040967E1D9F80010EA174E
:10380000C1E90052F6E7D9F800100D80F2E70D701B
:10381000F0E719F8041B8DF8001000208DF8010066
:10382000EA46012003E059F804AB4FF0FF3061078E
:103830004FF0000102D40DE008F101018846B942C1
:103840000FDA8045F8DB1AF808100029F4D108E0F7
:1038500008F1010188468142FADB1AF808100029B4
:10386000F6D105985B46A0EB080721463846179A23
:1038700000F094FA284400EB080507E04DE029E148
:103880000DE01AF8010B5A4617999047B8F1010854
:10389000F7D25B4621463846179A13E142E00A22E6
:1038A0000092C4F302524FF0000A022A08D059F8DD
:1038B00004CB032A4FEAEC710AD00DE029E02AE09C
:1038C00009F1070121F00702F2E802C1914609E07F
:1038D0000FFA8CFC4FEAEC71042A03D14FFA8CFCEE
:1038E0004FEAEC71002907DA0A460021DCF1000CEE
:1038F00061EB02012D2202E0220504D52B228DF876
:103900000420012203E0E20701D02022F7E79046DD
:1039100059E00A2102E010220DE010214FF0000AC8
:1039200000910BE010224FF0000A44F00404082735
:10393000009203E008224FF0000A0092C4F3025202
:10394000022A05D059F804CB0021032A08D009E047
:1039500009F1070121F00702F2E802C1914605E0F2
:103960001FFA8CFC042A01D10CF0FF0C4FF0000868
:10397000220728D5702806D0009B83F0100353EA55
:103980000A0305D00EE040228DF80420012208E051
:103990005CEA010206D030228DF804208DF8050083
:1039A00002229046009B83F0080353EA0A030AD1DF
:1039B0005CEA010201D1620705D530228DF80420AE
:1039C0004FF001087F1E582804D034A003900EA8A1
:1039D00002900DE036A0F9E753466046009AFCF7E6
:1039E00059FE84460398825C0298401E0290027041
:1039F0005CEA0100F0D1029806A9081A00F1200A39
:103A0000600702D524F4803400E00127574502DD29
:103A1000A7EB0A0000E0002000EB0A0100900598E7
:103A20004144401A0590E00306D45B462146179AAC
:103A3000059800F0B3F90544002706E001A85A46AE
:103A4000C05D179990476D1C7F1C4745F6DBE0036E
:103A50000CD55B462146179A059800F09FF905445E
:103A600004E030205A46179990476D1C0099481E73
:103A700000900029F5DC08E0029802995A46007887
:103A8000491C0291179990476D1CBAF10001AAF1E7
:103A9000010AF1DC65E10000092801003031323310
:103AA000343536373839616263646566000000007A
:103AB0003031323334353637383941424344454664
:103AC0000000000000F058F90544761C307800280A
:103AD0007FF4ECAD19B02846BDE8F08F620700D442
:103AE000062709F1070222F0070CFCE80223E14651
:103AF00003F000485FEA080C02D00FF2702C0DE0D2
:103B00005FEA045C02D50FF2682C07E05FEAC47C30
:103B100002D00FF2602C01E0AFF2700C4FF0FF38D2
:103B200023F00043CDF850C065280CD006DC4528B2
:103B300009D046281DD047283DD13DE0662818D041
:103B400067287ED138E00021112F01DB112000E031
:103B5000781CCDE9000106A90EA8FFF7D5FCDDE928
:103B60000F010E9A03910021009207F1010A0491BE
:103B70004DE04FF000400097CDE9011006A90EA8D6
:103B8000FFF7C2FCDDE90F0203920E9B11990022A0
:103B9000DDF80CA00093049211B9791C00EB010A26
:103BA000B7EB0A0004D4C0F1FF3007F1010A04901A
:103BB000AAEB0700019044E0012F00DA0127002161
:103BC000112F01DD112000E03846CDE9000106A9E2
:103BD0000EA8FFF799FCDDE90F010E9A0391002171
:103BE00004910092BA4621070CD40399514500DA9A
:103BF0008A46BAF1010F05DD009AAAF10101515C74
:103C0000302908D0B84202DA10F1040F06DA012197
:103C1000CDE9011015E0AAF10101E9E7002805DC72
:103C2000049901440491AAEB000102E0411C5145B2
:103C300000DD8A460499401A401C01904FF0004074
:103C40000290200704D40198504501DBCDF8048090
:103C500000208DF84F0002980DF14F07B0F1004F92
:103C600025D02B200E9002984FF0020800280CDA85
:103C7000404202902D200E9007E00A210298FCF7A6
:103C8000F3FC3031029007F8011DB8F10001A8F1F2
:103C90000108F2DC02980028EFD1791E0E98087016
:103CA000307800F0200040F0450007F8020D12A81F
:103CB000C01B00F107081498007800B1012000EB48
:103CC0000A01019801EBE07105984144401A401E39
:103CD0000590E00306D45B462146179A059800F04C
:103CE0005DF805441498007818B15A461799904722
:103CF0006D1CE00324D55B462146179A059800F019
:103D00004DF805441CE00498002807DBDDE90301B9
:103D1000884203DD0098405C179901E01799302034
:103D20005A469047049805F10105401C04900198FB
:103D3000401E019004D12E205A46179990476D1CC1
:103D4000BAF10001AAF1010ADDDC05E017F8010B68
:103D50005A46179990476D1CB8F10001A8F1010867
:103D6000F4DC5B462146179A0598ABE62D0000006F
:103D70002B000000200000002DE9F0410446002542
:103D80001E461746880404D405E039462020B04773
:103D90006D1C641EF9D52846BDE8F0812DE9F0417F
:103DA000044600251E469046C80301D5302700E092
:103DB0002027880404D505E041463846B0476D1CED
:103DC000641EF9D52846BDE8F08130B583B00446BD
:103DD000FFF77EFB05460020CDE9000002462146A4
:103DE0006846FCF7C4FC2846FFF788FBDDE90001C4
:103DF00003B030BD13B54FF6FF7301226946024888
:103E0000FEF710FC00981CBD6002002008B5FDF70D
:103E10005BFCFFF715F83848816941F020018161AA
:103E2000816901F020010091816941F00401816103
:103E3000816901F004010091816941F0080181610B
:103E400080692F4C00F0080000902C4820604FF44F
:103E5000E1300025C4E901050C20E560C4E9045007
:103E6000A5612046E561FEF769FB08B172B6FEE781
:103E7000FEF71AFE224823499C3801602249C0E916
:103E800001154FF48041C0E9035145618561C56169
:103E90000562FDF75FF908B172B6FEE71848002128
:103EA0004838FEF7EDF9164804214838FEF7E8F9DE
:103EB0002068C16841F02001C16014A0FFF7E4FA56
:103EC000FFF756FA00F0B4FA164A0021164800F03F
:103ED000EBFA164C134A0021A0602432144800F07B
:103EE000E3FA104AE06048320021124800F0DCFAA0
:103EF000206100F0B9FAFEE70010024000380140EE
:103F00006002002000540040A08601005B215D207B
:103F100053797374656D206973207570206E6F77A7
:103F2000210A0A00385B0008AD2D000800000020BF
:103F3000552B0008592C00082DE9F043044685B0A4
:103F40000068C6A1FCF76EF930B1C5A12068FCF786
:103F500069F9002877D072E1C2A16068FCF762F9C4
:103F6000002835D1A068FCF78DF9012804D002287B
:103F700002D0BEA0A16829E0C3A1E068FCF752F915
:103F80004FF47A75012620B3C1A1E068FCF74AF925
:103F9000002859D0C0A1E068FCF744F94FF00308AD
:103FA000002877D0BEA1E068FCF73CF900286FD06C
:103FB000BFA1E068FCF736F900286AD0BEA1E0682E
:103FC000FCF730F900287DD0BDA0E168FFF75CFA6E
:103FD00086E02069FFF7F9FE07468846A068FCF7EF
:103FE00051F9C0B23A464346FEF7B8FE2069FFF7E2
:103FF000ECFE0022B94BFCF7F9F9FCF704FB8DF855
:104000000C00A068FCF73EF94FF6FF7101EAC00210
:1040100003A8CDE900060123A0210295B048FDF7D1
:1040200085FA0520FCF78EFF2069FFF7CEFE0646D5
:104030000D46A068FCF726F9014632462B46A9A09A
:10404000FFF722FA4CE0CCE02069FCF71BF987B2BD
:10405000A068FCF717F906EBC00082B2380A8DF8A9
:104060000C00022003A9CDE900108DF80D7001238A
:104070000295A0219A48FDF759FA0A20FCF762FF41
:10408000A068FCF7FFF801463A46A0A026E001E050
:1040900029E066E02069FCF7F5F800F07F07642F5F
:1040A00000D96427A068FCF7EDF808EBC00082B2E5
:1040B00003A8CDE9000601238DF80C70A02102951C
:1040C000874800E06DE0FDF731FA0520FCF73AFF84
:1040D000A068FCF7D7F801463A4696A0FFF7D4F956
:1040E000FFF746F9ABE02069FCF7CCF800F00107D8
:1040F000A068FCF7C7F804ABCDE9003608EBC000B8
:10410000FF2182B20291B1460123A1217448FDF73B
:10411000E5F80520FCF716FF9DF81060F0098742CE
:1041200001D086F08006A068FCF7ACF803A9CDE9C1
:10413000001908EBC00082B28DF80C6001230295D3
:10414000A0216748FDF7F2F90520FCF7FBFEA06807
:10415000FCF798F8014617B17FA281A0BEE78AA2BA
:10416000FBE72069FCF78EF8C7B2A068FCF78AF875
:10417000042101EBC00082B203A8CDE900068DF84E
:104180000C700123A02102955548FDF7CFF90520B9
:10419000FCF7D8FEA068FCF775F801463A467CA00B
:1041A0009CE72069FCF76EF8C7B2A068FCF76AF8D4
:1041B000052101EBC00082B203A8CDE900068DF80D
:1041C0000C700123A02102954548FDF7AFF90520A9
:1041D000FCF7B8FEA068FCF755F801463A4676A011
:1041E0007CE780A16068FCF71DF840BBA068FCF785
:1041F00049F8012802D0022821D10FE0384801AE49
:10420000E430817A037BC27A058901F07F01009551
:1042100086E80E00D0E9002374480EE03048F43000
:10422000827A037BC17A058902F07F0200950393AD
:10423000CDE90121D0E900236D48FFF725F96DA1F3
:104240002068FBF7EFFF002804D105B0BDE8F0437C
:10425000FDF7EABA05B0BDE8F0830000534554000D
:10426000474554004348414E4E454C005B215D0993
:10427000556E6B6E6F776E206368616E6E656C2035
:104280005B25735D0A000000564F4C5441474500C2
:10429000504552494F440000445554590000000015
:1042A000445554595F52455645525345000000004D
:1042B00044454C41590000005245504541540000CE
:1042C0005B215D09556E6B6E6F776E20636F6D6D50
:1042D000616E64205B25735D0A00000000002440CD
:1042E000C40100205B2D5D09534554204348414ED5
:1042F0004E454C20256420564F4C54414745205490
:104300004F20252E3266760A000000005B2D5D09E5
:10431000534554204348414E4E454C20256420507F
:104320004552494F4420544F202564206D696E2822
:1043300073290A005B2D5D09534554204348414EC3
:104340004E454C202564204455545920544F202577
:104350006425250A000000004C20746F20480000EE
:104360005B2D5D09534554204348414E4E454C203A
:1043700025642044555459205455524E45442054E8
:104380004F2025730A0000004820746F204C000065
:104390005B2D5D09534554204348414E4E454C200A
:1043A00025642044454C415920544F2025642073F6
:1043B00065632873290A00005B2D5D09534554206D
:1043C0004348414E4E454C202564205245504541BE
:1043D0005420544F2025642074696D652873290A80
:1043E00000000000434F4E4649470000445C00086F
:1043F000B05C0008524553455400000010B5EFF37F
:10440000058149B9EFF3108131B9084909680229DA
:1044100005D1EFF3118111B16FF0050403E0002421
:1044200008B100F0E3FD204610BD00007800002038
:10443000EFF3058058B9EFF3108040B909490868D7
:10444000022801D030B109E0EFF3118030B16FF0F4
:104450000500704701200860002070474FF0FF30D2
:10446000704700007800002010B5EFF3058060B9B8
:10447000EFF3108048B90B490868022802D00128E0
:1044800006D00BE0EFF3118040B16FF0050010BDD6
:104490000220086000F012FE002010BD4FF0FF3037
:1044A00010BD000078000020F0B585B04FEA010390
:1044B0004FF00004EFF305810394A1BBEFF31081EB
:1044C00089BB21490968022902D1EFF3118151BB4F
:1044D00048B3802618218DF8104004AD42B3176808
:1044E00007B13D4697691FB139467F1E382F02D26A
:1044F0001779FF0702D0002005B0F0BD576907B15A
:10450000BE08D2F808C0BCF1000F0DD0D4685C2CF6
:1045100018D312693AB137B18DE8061032462946F0
:1045200001F027F903900DE0D7685FB912694AB925
:1045300003AACDE90012B2B2294601F0EDF8012834
:1045400000D003940398D7E7780000202DE9F041CC
:10455000134C0F46054666692068001D00F016FCE6
:10456000681C07D137B12168BDE8F0410D48091D2D
:1045700000F05CBC20683544B5424560216805D236
:10458000A068BDE8F041091D00F038BC6068091D55
:1045900000F034FC206B854200D22563BDE8F08139
:1045A00028000020000800202DE9F041054600F019
:1045B00049FC2D4C2069401C206120682B4F10B114
:1045C000E06930B32BE025602069012827D100265F
:1045D00006EB860007EB800000F002FC761C382E0C
:1045E000F6D3234800F0FCFB2148143000F0F8FB20
:1045F0001F48283000F0F4FB1D483C3000F0F0FB71
:104600001B48503000F0ECFB194860601430A0608B
:1046100005E02068E96AC06A884200D82560E06A3F
:10462000401CE0626864E86AA169884200D9A06120
:1046300000EB800007EB8000291D00F0F7FB00F085
:1046400021FCE06900280CD02068E96AC06A884231
:1046500007D208494FF080500860BFF34F8FBFF377
:104660006F8FBDE8F081000028000020500300207B
:10467000B007002004ED00E038B500F0E3FB104C7B
:10468000A068C8B90F4800F0ABFB0E48143000F02A
:10469000A7FB0C482060143060600A4B00202833D0
:1046A000009003F1500210210A2000F0D9FDA06013
:1046B00010B105A100F064FCBDE8384000F0E2BB99
:1046C0006400002014080020546D725100000000A6
:1046D00030B4026C0B46002A0BD0C1681144C16093
:1046E0004468A14201D30168C16030BC1846FBF7A1
:1046F00075BD30BC70472DE9F041856B1746044607
:104700000026026C82B1C7B1E068FBF767FDE16883
:10471000206C091AE1602268914202D26168081A8D
:10472000E060022F16D017E02068A8B9606801F099
:10473000C3F80646002060600EE0A068FBF74EFD5F
:10474000216CA0680844A0606168884204D3206896
:10475000A06001E005B16D1E6D1CA5633046BDE88B
:10476000F08110B5044690F8590058B101280CD0DA
:1047700002280FD0502080F31188BFF34F8FBFF372
:104780006F8FFEE7206B00F091FB2046BDE81040E4
:1047900000F08CBB10BD000010484FF44061420790
:1047A00006D0C01D0D4920F00700411AC1F5406137
:1047B0000B4A00230144C2E900030839103A21F0F2
:1047C000070111604B600B600B1AC0E90013936086
:1047D0004FF000405360D06070470000E40F0020AD
:1047E0008C000020144E154CA6F29C474FF08058C8
:1047F000DFF84C9012E000BF00F024FBF068C568C1
:10480000281D00F0C3FA2069401E2061E068401EA8
:10481000E06000F037FB2846FFF7A3FFE0680028C0
:10482000EAD138680128F9D9C9F80080BFF34F8F61
:10483000BFF36F8FF2E70000EC0700202800002094
:1048400004ED00E070B51D46049C51B1C4F8002091
:10485000C4E90F010121204600F036FD84F84C50D8
:1048600070BD2460F4E72DE9F0470E46DDE90984C8
:104870001746824691009946089DA522206BFBF7BA
:10488000BFFC6FF00301206B01EB8701084420F0AF
:104890000707780707D0502080F31188BFF34F8FA8
:1048A000BFF36F8FFEE72218315C82F83410315C61
:1048B00011B1401C1028F6D3002684F84360382D2F
:1048C00000D33725E562C4E91356201D00F093FAA2
:1048D00004F1180000F08FFA2461C5F13800646219
:1048E000A061666584F858604A465146384600F033
:1048F0003BFA2060B8F1000F01D0C8F80040BDE8D5
:10490000F087000030B5114900E011460A68824284
:10491000FBD34B685C18844203D14068184448605C
:10492000084643681C18944209D1084C103C24687E
:10493000A24209D052681A4442600A6812680260B2
:10494000814200D0086030BD0460F9E78C0000208F
:1049500070B5002441600B4D0061914206D8D11A18
:104960008269914206D2011D686807E09A4203D22B
:10497000994201D3012403E0011D286800F03EFAAA
:10498000204670BD6400002010B5044600F05AFABD
:10499000A06B28B15FF0000400F074FA204610BD4F
:1049A0000124F9E730B589B0304D55E0049800286E
:1049B00006DADDE90601059A9047049800284BDBEA
:1049C000069C606910B1201D00F0E0F902A800F01B
:1049D000B9F8024604980A283ED2DFE800F005053F
:1049E000053D263705053D260598A1690346014486
:1049F0002046FFF7ADFF00B3616A20468847E069B3
:104A0000012829D1002000900598A16900234218AF
:104A10001946204601F05AF878B9502080F31188E1
:104A2000BFF34F8FBFF36F8FFEE70598A06128B1EA
:104A3000811813462046FFF78BFF0DE0502080F3CE
:104A40001188BFF34F8FBFF36F8FFEE794F82C00F0
:104A500010B9204600F02AFA002204A9A86800F044
:104A600085FD0028A2D109B030BD000064000020FF
:104A70002DE9FC410F46054600F064FB01A800F05B
:104A800061F80446019818B100F08EFFBDE8FC8182
:104A9000224EAFB170680068A8B30027291B3A46C0
:104AA000B06800F081FA00F07FFF0028EED11C49C9
:104AB0004FF080500860BFF34F8FBFF36F8FE5E773
:104AC000A542EBD800F070FF30682746C068C46884
:104AD000201D00F05BF9E069012810D1A0692B4688
:104AE00041193A462046FFF733FF40B10020034604
:104AF000014600902A46204600F0E8FF20B1616A96
:104B000020468847C2E707E0502080F31188BFF3B2
:104B10004F8FBFF36F8FFEE70127BFE764000020D0
:104B200004ED00E006484168096829B14168C96898
:104B3000C9684968016370474FF0FF31FAE7000028
:104B40002800002070B5054600F04CFE064E0446D5
:104B50003069844203D200F009F8012000E000200F
:104B600028602046346170BD64000020F8B5194DFE
:104B70001FE0C068C4680668201D00F007F9616A7C
:104B800020468847E069012813D1A0693044B0422B
:104B900006D924616060211D286800F02FF908E023
:104BA00000200346014600903246204600F08EFF6A
:104BB00038B1286801680029DBD16968C5E90010AF
:104BC000F8BD502080F31188BFF34F8FBFF36F8F74
:104BD000FEE700006400002008484068401C4FF0D9
:104BE000500080F3118804D0BFF34F8FBFF36F8F55
:104BF000FEE7BFF34F8FBFF36F8FFEE794000020F7
:104C0000074C2068016841B1C0680021D0F800005D
:104C1000FFF72EFFFFF7C6FEF3E701210020F7E7BD
:104C2000640000202DE9F041044600F00BF994F9EE
:104C3000455004F1240609E0606A48B1304600F0AE
:104C40007BFE08B100F000FA6D1E6DB2002DF3DCA2
:104C50004FF0FF3684F8456000F014F900F0F2F8E8
:104C600094F9445004F1100709E0206948B138462E
:104C700000F062FE08B100F0E7F96D1E6DB2002D84
:104C8000F3DC84F84460BDE8F04100F0FBB80000BC
:104C90002DE9F0410546002700F054FA314E306806
:104CA00008B9FFF779FDF06805424BD1C5B3083567
:104CB00068070ED005F00700C0F10800054468073A
:104CC00007D0502080F31188BFF34F8FBFF36F8F51
:104CD000FEE72DB37068854234D822481030014673
:104CE0000C6801E020460C466168A94202D22168A6
:104CF0000029F7D131688C4224D00768216801600F
:104D000060680837411B10290FD96019420708D085
:104D1000502080F31188BFF34F8FBFF36F8FFEE7F2
:104D200010E041606560FFF7EDFD61687068401A52
:104D30007060B268904200D2B060F0680143002019
:104D4000C4E9000100F030FE780707D0502080F35E
:104D50001188BFF34F8FBFF36F8FFEE73846BDE872
:104D6000F08100007C00002010B5031F4FF080741C
:104D70001C601B1F21F001011960191F024B0B6001
:104D8000143940380A6010BDD94B0008D0E901320F
:104D900001699A60D0E901235A604A68824201D1D0
:104DA00082684A60002202610868401E0860086844
:104DB00070470000034B036003F15C000860802033
:104DC000106070472C090020044B036003F15C0065
:104DD00008604FF48070106070470000880B00205E
:104DE00000F108014FF0FF32C0E90112C16001611A
:104DF00000210160704700210161704730B50B68E8
:104E00005A1C02D000F1080202E0026904E02246C6
:104E1000546825689D42FAD953684B6099608A604E
:104E2000516008610168491C016030BD42684A60F8
:104E300093688B6093685960916008610168491CB0
:104E400001607047502080F31188BFF34F8FBFF38C
:104E50006F8F0A494868401C486001280CD10848F7
:104E6000006810F0FF0F07D0502080F31188BFF3C7
:104E70004F8FBFF36F8FFEE7704700009400002054
:104E800004ED00E00849486828B1401E486001D19F
:104E900080F311887047502080F31188BFF34F8F43
:104EA000BFF36F8FFEE700009400002070B500286C
:104EB00027D0144DA0F108046168E868014207D1C9
:104EC000502080F31188BFF34F8FBFF36F8FFEE741
:104ED00022683AB1502080F31188BFF34F8FBFF39F
:104EE0006F8FFEE78143616000F02CF960686968AC
:104EF000084468602046FFF705FDBDE8704000F0FB
:104F000053BD70BD7C0000204FF0E0200021016106
:104F1000816105494FF47A720968B1FBF2F1491ECB
:104F200041610721016170472400002010B5FBF7A3
:104F30002FF9114910280ED300F1E02090F8F0036A
:104F40000A78904207D2502080F31188BFF34F8F28
:104F5000BFF36F8FFEE709480068896800F4E060DE
:104F6000884207D9502080F31188BFF34F8FBFF3D9
:104F70006F8FFEE710BD0000940000200CED00E0F4
:104F800010B5084B002200BF53F832401CB1521C30
:104F9000082AF9D310BD43F8321003EBC201486070
:104FA00010BD00001003002070B515460E460446E3
:104FB000FFF748FF94F944100020491C01D184F800
:104FC000440094F94510491C01D184F84500FFF7CD
:104FD00059FFA06B28B92A46314604F1240000F09D
:104FE00051F82046BDE87040FFF71CBE10B5020026
:104FF00014D00F48806B38B1502080F31188BFF374
:105000004F8FBFF36F8FFEE700F09CF80021104632
:10501000FFF79CFA00F0C8FC002807D105494FF0C3
:1050200080500860BFF34F8FBFF36F8F10BD00003B
:105030002800002004ED00E002498A6A0260496904
:1050400041607047280000200149012048627047F4
:105050002800002010B50C4650B1094909681831E4
:10506000FFF7CCFE2046BDE810400121FFF76EBAE5
:10507000502080F31188BFF34F8FBFF36F8FFEE78F
:105080002800002070B514460D4668B10A49096829
:105090001831FFF7CBFE0CB14FF0FF352146284603
:1050A000BDE87040FFF752BA502080F31188BFF37B
:1050B0004F8FBFF36F8FFEE72800002030B587B019
:1050C0000024039405AA04A903A80494FFF772FE20
:1050D000DDE903010094CDE90110002315A1174873
:1050E000059A00F046FB164D002868631FD000F0BB
:1050F000BDFC012809D0401C19D1502080F3118833
:10510000BFF34F8FBFF36F8FFEE7502080F31188FE
:10511000BFF34F8FBFF36F8F4FF0FF302863012035
:10512000E8616C6107B0BDE8304000F045B807B0F9
:1051300030BD000049444C4500000000E547000830
:10514000280000200248816B491C816370470000E1
:1051500028000020164810B5816B11B10121416271
:1051600010BD002141628169124A01E0B9B1491EB6
:1051700001EB810352F82330002BF7D001EB8103C0
:1051800002EB830202F1080453685B685360A34298
:1051900001D15B685360DA680260816110BD502004
:1051A00080F31188BFF34F8FBFF36F8FFEE70000CE
:1051B00028000020500300201CB5264908780190E3
:1051C000FF20087008788DF800009DF800009DF819
:1051D000002000F0F000904207D0502080F31188AA
:1051E000BFF34F8FBFF36F8FFEE79DF800001A4BA0
:1051F00000F0500018700720986005E09DF800202E
:1052000052008DF80020401E9DF800201206F5D4B3
:105210009860032807D0502080F31188BFF34F8F88
:10522000BFF36F8FFEE74FF44070986001980870ED
:105230000A48016841F470010160016841F0704161
:105240000160FFF761FE00205860FAF76BFF002055
:105250001CBD000000E400E09400002020ED00E010
:1052600038B5049D18B153B1CAB181B120E05020C6
:1052700080F31188BFF34F8FBFF36F8FFEE750208D
:1052800080F31188BFF34F8FBFF36F8FFEE750207D
:1052900080F31188BFF34F8FBFF36F8FFEE739B1F3
:1052A000502080F31188BFF34F8FBFF36F8FFEE75D
:1052B00050241C46012384F846302B460094FFF707
:1052C000C1FA204638BD000070B50D46040025D057
:1052D000FFF7B8FDD4E90F20216802FB00116160DF
:1052E0000021A1632168A1600A46D4E90F01401E94
:1052F00000FB0121E16021464FF0FF3001F8440F2F
:10530000487004F110008DB1FFF76AFD04F124002C
:10531000FFF766FDFFF7B6FD012070BD502080F35A
:105320001188BFF34F8FBFF36F8FFEE7216900290C
:10533000F0D000F001FB0028ECD004494FF0805081
:105340000860BFF34F8FBFF36F8FE3E704ED00E01A
:105350002DE9FF4782B01D468A464FF00008040041
:1053600003D0BAF1000F08D011E0502080F311886B
:10537000BFF34F8FBFF36F8FFEE7206C38B1502023
:1053800080F31188BFF34F8FBFF36F8FFEE7022DBD
:105390000AD1E06B012807D0502080F31188BFF3B9
:1053A0004F8FBFF36F8FFEE700F00EFA3F4F4FF0C5
:1053B00000094FF0805648B9049838B1502080F366
:1053C0001188BFF34F8FBFF36F8FFEE7FFF73AFDF2
:1053D000A06BE16B884207D3022D05D00498D0B1B1
:1053E000B8F1000F1AD01EE02A4651462046FFF7BA
:1053F00082F9616A19B104F1240000F09DFA20B12C
:105400003E60BFF34F8FBFF36F8FFFF73BFD01206F
:1054100006B0BDE8F087FFF735FD22E06846FFF7EC
:105420000BFE4FF00108FFF72DFDFFF78BFEFFF796
:1054300009FD94F94400401C01D184F8449094F98A
:105440004500401C01D184F84590FFF71BFD04A9DD
:10545000684600F027F930B12046FFF7E3FB00F083
:10546000A3FA0020D4E7FFF7EDFCA06BE16B8842C4
:1054700013D1FFF707FD04F110000499FFF7EAFDCF
:105480002046FFF7CFFB00F08FFA00289ED13E6048
:10549000BFF34F8FBFF36F8F98E7FFF7F3FC204602
:1054A000FFF7C0FB00F080FA90E7000004ED00E099
:1054B0002DE9F0471F4690468946040003D0B9F114
:1054C000000F08D011E0502080F31188BFF34F8FF8
:1054D000BFF36F8FFEE7206C38B1502080F3118846
:1054E000BFF34F8FBFF36F8FFEE7022F0AD1E06B40
:1054F000012807D0502080F31188BFF34F8FBFF3EE
:105500006F8FFEE7FFF712FD5020EFF3118680F357
:105510001188BFF34F8FBFF36F8FA06BE16B884291
:1055200006D3022F04D0002086F31188BDE8F0874F
:1055300094F945503A4649462046FFF7DCF8681C86
:1055400004D06D1C84F845500120EDE7606A002806
:10555000FAD004F1240000F0EFF90028F4D0B8F1FB
:10556000000FF1D00121C8F80010EDE72DE9F74751
:10557000002683B08A46040003D0BAF1000F08D099
:1055800011E0502080F31188BFF34F8FBFF36F8F6E
:10559000FEE7206C38B1502080F31188BFF34F8FA5
:1055A000BFF36F8FFEE700F00FF9DFF8F4804FF0E4
:1055B00000094FF0805748B9059838B1502080F362
:1055C0001188BFF34F8FBFF36F8FFEE7FFF73AFCF1
:1055D000A56BC5B151462046FFF77AF86D1EA5634D
:1055E000206950B104F1100000F0A6F928B1C8F804
:1055F0000070BFF34F8FBFF36F8FFFF743FC0120A5
:1056000006B0BDE8F087059808B11EB106E0FFF7C7
:1056100039FC27E06846FFF70FFD0126FFF732FC53
:10562000FFF790FDFFF70EFC94F94400401C01D1F8
:1056300084F8449094F94500401C01D184F84590C9
:10564000FFF720FC05A9684600F02CF8002820464A
:105650000AD0FFF7E7FA00F0A7F92046FFF794F920
:105660000028B3D00020CBE7FFF78EF990B104F10A
:1056700024000599FFF7EEFC2046FFF7D3FA00F06F
:1056800093F90028A2D1C8F80070BFF34F8FBFF381
:105690006F8F9BE72046FFF7C5FA00F085F995E785
:1056A00004ED00E02DE9F0410C46050011D0C4B135
:1056B000FFF7C8FB174B5A696E682068911B471C9F
:1056C00017D02F689B6A9F4219D0964217D80124A1
:1056D00010E0502080F31188BFF34F8FBFF36F8F1E
:1056E000FEE7502080F31188BFF34F8FBFF36F8F19
:1056F000FEE70024FFF7C6FB2046BDE8F0818842A4
:1057000005D9401A20602846FFF796FCF1E70020F3
:105710002060DCE7280000202DE9FF5F8346DDE9FB
:105720000E87994616468A469000FFF7B1FA0500A3
:105730001CD05C20FFF7ACFA040014D000202563D5
:1057400084F85900CDE90240CDE900874B46324646
:1057500051465846FFF787F82046FEF725FF0120FF
:1057600004B0BDE8F09F2846FFF7A0FB4FF0FF30E4
:10577000F6E7F0B585B0DDE90B640A9DA6B1DCB1B2
:105780005C2700972663022684F85960002604AF40
:10579000CDE90246CDE90057FFF765F82046FEF750
:1057A00003FF049805B0F0BD502080F31188BFF3CB
:1057B0004F8FBFF36F8FFEE7502080F31188BFF348
:1057C0004F8FBFF36F8FFEE70548C16919B1806B3A
:1057D00018B1002070470120704702207047000078
:1057E0002800002001484069704700002800002080
:1057F0002DE9F0412E4C0027A06B40B1206A401CDF
:105800002062606A00B101273846BDE8F081666910
:10581000761C666113D16068006838B1502080F34F
:105820001188BFF34F8FBFF36F8FFEE76068A168E9
:105830006160A060A06A401CA062FFF773F9206B52
:10584000DFF87080864209D36068006880B16068C4
:10585000C068C568686886420DD220632068C06A47
:1058600000EB800158F821000128CAD90127C8E7B8
:105870004FF0FF30F1E7281DFFF788FAA86A18B14A
:1058800005F11800FFF782FAE86AA169884200D999
:10589000A06100EB800108EB8100291DFFF7C6FA2B
:1058A000E86A2168C96A8842CED30127CCE70000A4
:1058B000280000205003002070B504004FF00001C4
:1058C00033D01B4D2868844207D0502080F31188C4
:1058D000BFF34F8FBFF36F8FFEE7206D38B1401ECF
:1058E0002065E36CE26A9A421FD040B11DE050206F
:1058F00080F31188BFF34F8FBFF36F8FFEE7201D3A
:10590000FFF744FAE06CE062C0F13800A061E06AA1
:10591000A969884200D9A861064900EB800001EB23
:105920008000211DFFF782FA0121084670BD0000AA
:10593000280000205003002070B5C068C46854B12E
:1059400004F118000646FFF721FA144DA86B50B178
:105950003146134815E0502080F31188BFF34F8F74
:10596000BFF36F8FFEE7201DFFF710FAE06AA96909
:10597000884200D9A8610B4900EB800001EB800050
:10598000211DFFF753FAE06A2968C96A884202D9E3
:105990000120686270BD002070BD0000280000205A
:1059A000D8070020500300202DE9F0472C4D00249B
:1059B0002746A86B38B1FFF745FAA86B401EA863CD
:1059C000A86B40B146E0502080F31188BFF34F8FA1
:1059D000BFF36F8FFEE72969224E0120D1B3A6F5F0
:1059E000916980463068E0B1F068C46804F118003D
:1059F000FFF7CCF9201DFFF7C9F9E06AA9698842D1
:105A000000D9A86100EB800109EB8100211DFFF79F
:105A10000DFAE06A2968C96A8842E3D3C5F8248090
:105A2000E0E70CB1FFF77EF82C6A4CB14FEA0806AC
:105A3000FFF7DEFE00B16E62641EF9D1002028621D
:105A4000686A38B10849012738070860BFF34F8FEB
:105A5000BFF36F8FFFF716FA3846BDE8F0870000F6
:105A600028000020D807002004ED00E010B586B023
:105A7000FEF702FE114CA068B8B10020039004901C
:105A800005AA04A903A8FFF79FF9DDE90321022075
:105A90008DE8070000230AA10B48059AFFF769FE6D
:105AA000E06010B106B0012010BD502080F31188D5
:105AB000BFF34F8FBFF36F8FFEE70000640000203D
:105AC000546D722053766300014C00082DE9FF41AC
:105AD0001E46134602000A9D4FF0000016D0144CDB
